{
  "_format": "hh-sol-artifact-1",
  "contractName": "PaymentEscrow",
  "sourceName": "contracts/PaymentEscrow.sol",
  "abi": [
    {
      "inputs": [
        {
          "internalType": "address",
          "name": "_pyusdAddress",
          "type": "address"
        }
      ],
      "stateMutability": "nonpayable",
      "type": "constructor"
    },
    {
      "anonymous": false,
      "inputs": [
        {
          "indexed": true,
          "internalType": "address",
          "name": "worker",
          "type": "address"
        },
        {
          "indexed": true,
          "internalType": "bytes32",
          "name": "credentialHash",
          "type": "bytes32"
        },
        {
          "indexed": false,
          "internalType": "uint256",
          "name": "amount",
          "type": "uint256"
        }
      ],
      "name": "PaymentClaimed",
      "type": "event"
    },
    {
      "anonymous": false,
      "inputs": [
        {
          "indexed": true,
          "internalType": "address",
          "name": "worker",
          "type": "address"
        },
        {
          "indexed": true,
          "internalType": "address",
          "name": "employer",
          "type": "address"
        },
        {
          "indexed": true,
          "internalType": "bytes32",
          "name": "credentialHash",
          "type": "bytes32"
        },
        {
          "indexed": false,
          "internalType": "uint256",
          "name": "amount",
          "type": "uint256"
        }
      ],
      "name": "PaymentEscrowed",
      "type": "event"
    },
    {
      "inputs": [
        {
          "internalType": "bytes32",
          "name": "_credentialHash",
          "type": "bytes32"
        }
      ],
      "name": "claimPayment",
      "outputs": [],
      "stateMutability": "nonpayable",
      "type": "function"
    },
    {
      "inputs": [
        {
          "internalType": "address",
          "name": "_worker",
          "type": "address"
        },
        {
          "internalType": "bytes32",
          "name": "_credentialHash",
          "type": "bytes32"
        },
        {
          "internalType": "uint256",
          "name": "_amount",
          "type": "uint256"
        }
      ],
      "name": "depositPayment",
      "outputs": [],
      "stateMutability": "nonpayable",
      "type": "function"
    },
    {
      "inputs": [
        {
          "internalType": "address",
          "name": "",
          "type": "address"
        },
        {
          "internalType": "bytes32",
          "name": "",
          "type": "bytes32"
        }
      ],
      "name": "escrows",
      "outputs": [
        {
          "internalType": "address",
          "name": "employer",
          "type": "address"
        },
        {
          "internalType": "uint256",
          "name": "amount",
          "type": "uint256"
        },
        {
          "internalType": "bool",
          "name": "claimed",
          "type": "bool"
        }
      ],
      "stateMutability": "view",
      "type": "function"
    },
    {
      "inputs": [
        {
          "internalType": "address",
          "name": "_worker",
          "type": "address"
        },
        {
          "internalType": "bytes32",
          "name": "_credentialHash",
          "type": "bytes32"
        }
      ],
      "name": "getEscrow",
      "outputs": [
        {
          "internalType": "address",
          "name": "employer",
          "type": "address"
        },
        {
          "internalType": "uint256",
          "name": "amount",
          "type": "uint256"
        },
        {
          "internalType": "bool",
          "name": "claimed",
          "type": "bool"
        }
      ],
      "stateMutability": "view",
      "type": "function"
    },
    {
      "inputs": [],
      "name": "pyusd",
      "outputs": [
        {
          "internalType": "contract IERC20",
          "name": "",
          "type": "address"
        }
      ],
      "stateMutability": "view",
      "type": "function"
    }
  ],
  "bytecode": "0x608060405234801561001057600080fd5b50604051610ebd380380610ebd833981810160405281019061003291906100db565b806000806101000a81548173ffffffffffffffffffffffffffffffffffffffff021916908373ffffffffffffffffffffffffffffffffffffffff16021790555050610108565b600080fd5b600073ffffffffffffffffffffffffffffffffffffffff82169050919050565b60006100a88261007d565b9050919050565b6100b88161009d565b81146100c357600080fd5b50565b6000815190506100d5816100af565b92915050565b6000602082840312156100f1576100f0610078565b5b60006100ff848285016100c6565b91505092915050565b610da6806101176000396000f3fe608060405234801561001057600080fd5b50600436106100575760003560e01c806308fee9201461005c57806322e669d31461008e5780632db050d1146100ac57806353ec546b146100c85780635f9bcc54146100fa575b600080fd5b6100766004803603810190610071919061088f565b610116565b60405161008593929190610912565b60405180910390f35b610096610211565b6040516100a391906109a8565b60405180910390f35b6100c660048036038101906100c191906109c3565b610235565b005b6100e260048036038101906100dd919061088f565b610477565b6040516100f193929190610912565b60405180910390f35b610114600480360381019061010f9190610a1c565b6104db565b005b600080600080600160008773ffffffffffffffffffffffffffffffffffffffff1673ffffffffffffffffffffffffffffffffffffffff16815260200190815260200160002060008681526020019081526020016000206040518060600160405290816000820160009054906101000a900473ffffffffffffffffffffffffffffffffffffffff1673ffffffffffffffffffffffffffffffffffffffff1673ffffffffffffffffffffffffffffffffffffffff168152602001600182015481526020016002820160009054906101000a900460ff1615151515815250509050806000015181602001518260400151935093509350509250925092565b60008054906101000a900473ffffffffffffffffffffffffffffffffffffffff1681565b6000600160003373ffffffffffffffffffffffffffffffffffffffff1673ffffffffffffffffffffffffffffffffffffffff1681526020019081526020016000206000838152602001908152602001600020905060008160010154116102d0576040517f08c379a00000000000000000000000000000000000000000000000000000000081526004016102c790610acc565b60405180910390fd5b8060020160009054906101000a900460ff1615610322576040517f08c379a000000000000000000000000000000000000000000000000000000000815260040161031990610b38565b60405180910390fd5b60018160020160006101000a81548160ff02191690831515021790555060008054906101000a900473ffffffffffffffffffffffffffffffffffffffff1673ffffffffffffffffffffffffffffffffffffffff1663a9059cbb3383600101546040518363ffffffff1660e01b815260040161039e929190610b58565b6020604051808303816000875af11580156103bd573d6000803e3d6000fd5b505050506040513d601f19601f820116820180604052508101906103e19190610bad565b610420576040517f08c379a000000000000000000000000000000000000000000000000000000000815260040161041790610c26565b60405180910390fd5b813373ffffffffffffffffffffffffffffffffffffffff167f73be3d1d649c2ae1f17f9e04d874a171751e238a8260c3d567234eec4e12c5f7836001015460405161046b9190610c46565b60405180910390a35050565b6001602052816000526040600020602052806000526040600020600091509150508060000160009054906101000a900473ffffffffffffffffffffffffffffffffffffffff16908060010154908060020160009054906101000a900460ff16905083565b6000811161051e576040517f08c379a000000000000000000000000000000000000000000000000000000000815260040161051590610cad565b60405180910390fd5b6000600160008573ffffffffffffffffffffffffffffffffffffffff1673ffffffffffffffffffffffffffffffffffffffff168152602001908152602001600020600084815260200190815260200160002060010154146105b4576040517f08c379a00000000000000000000000000000000000000000000000000000000081526004016105ab90610d19565b60405180910390fd5b60008054906101000a900473ffffffffffffffffffffffffffffffffffffffff1673ffffffffffffffffffffffffffffffffffffffff166323b872dd3330846040518463ffffffff1660e01b815260040161061193929190610d39565b6020604051808303816000875af1158015610630573d6000803e3d6000fd5b505050506040513d601f19601f820116820180604052508101906106549190610bad565b610693576040517f08c379a000000000000000000000000000000000000000000000000000000000815260040161068a90610c26565b60405180910390fd5b60405180606001604052803373ffffffffffffffffffffffffffffffffffffffff16815260200182815260200160001515815250600160008573ffffffffffffffffffffffffffffffffffffffff1673ffffffffffffffffffffffffffffffffffffffff168152602001908152602001600020600084815260200190815260200160002060008201518160000160006101000a81548173ffffffffffffffffffffffffffffffffffffffff021916908373ffffffffffffffffffffffffffffffffffffffff1602179055506020820151816001015560408201518160020160006101000a81548160ff021916908315150217905550905050813373ffffffffffffffffffffffffffffffffffffffff168473ffffffffffffffffffffffffffffffffffffffff167f6246c499ef666493e87377ad61cc91c3fadb4c734ba3ac93df9f434091782716846040516107e99190610c46565b60405180910390a4505050565b600080fd5b600073ffffffffffffffffffffffffffffffffffffffff82169050919050565b6000610826826107fb565b9050919050565b6108368161081b565b811461084157600080fd5b50565b6000813590506108538161082d565b92915050565b6000819050919050565b61086c81610859565b811461087757600080fd5b50565b60008135905061088981610863565b92915050565b600080604083850312156108a6576108a56107f6565b5b60006108b485828601610844565b92505060206108c58582860161087a565b9150509250929050565b6108d88161081b565b82525050565b6000819050919050565b6108f1816108de565b82525050565b60008115159050919050565b61090c816108f7565b82525050565b600060608201905061092760008301866108cf565b61093460208301856108e8565b6109416040830184610903565b949350505050565b6000819050919050565b600061096e610969610964846107fb565b610949565b6107fb565b9050919050565b600061098082610953565b9050919050565b600061099282610975565b9050919050565b6109a281610987565b82525050565b60006020820190506109bd6000830184610999565b92915050565b6000602082840312156109d9576109d86107f6565b5b60006109e78482850161087a565b91505092915050565b6109f9816108de565b8114610a0457600080fd5b50565b600081359050610a16816109f0565b92915050565b600080600060608486031215610a3557610a346107f6565b5b6000610a4386828701610844565b9350506020610a548682870161087a565b9250506040610a6586828701610a07565b9150509250925092565b600082825260208201905092915050565b7f4e6f207061796d656e7420657363726f77656400000000000000000000000000600082015250565b6000610ab6601383610a6f565b9150610ac182610a80565b602082019050919050565b60006020820190508181036000830152610ae581610aa9565b9050919050565b7f5061796d656e7420616c726561647920636c61696d6564000000000000000000600082015250565b6000610b22601783610a6f565b9150610b2d82610aec565b602082019050919050565b60006020820190508181036000830152610b5181610b15565b9050919050565b6000604082019050610b6d60008301856108cf565b610b7a60208301846108e8565b9392505050565b610b8a816108f7565b8114610b9557600080fd5b50565b600081519050610ba781610b81565b92915050565b600060208284031215610bc357610bc26107f6565b5b6000610bd184828501610b98565b91505092915050565b7f5059555344207472616e73666572206661696c65640000000000000000000000600082015250565b6000610c10601583610a6f565b9150610c1b82610bda565b602082019050919050565b60006020820190508181036000830152610c3f81610c03565b9050919050565b6000602082019050610c5b60008301846108e8565b92915050565b7f416d6f756e74206d7573742062652067726561746572207468616e2030000000600082015250565b6000610c97601d83610a6f565b9150610ca282610c61565b602082019050919050565b60006020820190508181036000830152610cc681610c8a565b9050919050565b7f5061796d656e7420616c726561647920657363726f7765640000000000000000600082015250565b6000610d03601883610a6f565b9150610d0e82610ccd565b602082019050919050565b60006020820190508181036000830152610d3281610cf6565b9050919050565b6000606082019050610d4e60008301866108cf565b610d5b60208301856108cf565b610d6860408301846108e8565b94935050505056fea2646970667358221220b4b1731ad302be8847e99d84db410e88765e0882d4d445cad00a3c879b1357a164736f6c634300081c0033",
  "linkReferences": {},
  "deployedLinkReferences": {}
}