{
  "_format": "hh-sol-artifact-1",
  "contractName": "WorkPassport",
  "sourceName": "contracts/WorkPassport.sol",
  "abi": [
    {
      "anonymous": false,
      "inputs": [
        {
          "indexed": true,
          "internalType": "address",
          "name": "worker",
          "type": "address"
        },
        {
          "indexed": true,
          "internalType": "address",
          "name": "employer",
          "type": "address"
        },
        {
          "indexed": false,
          "internalType": "bytes32",
          "name": "credentialHash",
          "type": "bytes32"
        },
        {
          "indexed": false,
          "internalType": "uint256",
          "name": "timestamp",
          "type": "uint256"
        }
      ],
      "name": "CredentialIssued",
      "type": "event"
    },
    {
      "inputs": [
        {
          "internalType": "address",
          "name": "_worker",
          "type": "address"
        },
        {
          "internalType": "uint256",
          "name": "_index",
          "type": "uint256"
        }
      ],
      "name": "getCredential",
      "outputs": [
        {
          "internalType": "bytes32",
          "name": "credentialHash",
          "type": "bytes32"
        },
        {
          "internalType": "address",
          "name": "employer",
          "type": "address"
        },
        {
          "internalType": "uint256",
          "name": "timestamp",
          "type": "uint256"
        },
        {
          "internalType": "bool",
          "name": "isValid",
          "type": "bool"
        }
      ],
      "stateMutability": "view",
      "type": "function"
    },
    {
      "inputs": [
        {
          "internalType": "address",
          "name": "_worker",
          "type": "address"
        }
      ],
      "name": "getCredentialCount",
      "outputs": [
        {
          "internalType": "uint256",
          "name": "",
          "type": "uint256"
        }
      ],
      "stateMutability": "view",
      "type": "function"
    },
    {
      "inputs": [
        {
          "internalType": "address",
          "name": "_worker",
          "type": "address"
        },
        {
          "internalType": "bytes32",
          "name": "_credentialHash",
          "type": "bytes32"
        }
      ],
      "name": "issueCredential",
      "outputs": [],
      "stateMutability": "nonpayable",
      "type": "function"
    },
    {
      "inputs": [
        {
          "internalType": "address",
          "name": "",
          "type": "address"
        },
        {
          "internalType": "uint256",
          "name": "",
          "type": "uint256"
        }
      ],
      "name": "workerCredentials",
      "outputs": [
        {
          "internalType": "bytes32",
          "name": "credentialHash",
          "type": "bytes32"
        },
        {
          "internalType": "address",
          "name": "employer",
          "type": "address"
        },
        {
          "internalType": "uint256",
          "name": "timestamp",
          "type": "uint256"
        },
        {
          "internalType": "bool",
          "name": "isValid",
          "type": "bool"
        }
      ],
      "stateMutability": "view",
      "type": "function"
    }
  ],
  "bytecode": "0x6080604052348015600f57600080fd5b506108278061001f6000396000f3fe608060405234801561001057600080fd5b506004361061004c5760003560e01c80632d405995146100515780637c4f4e0b146100815780639a992096146100b4578063b4e5a8de146100e7575b600080fd5b61006b6004803603810190610066919061055b565b610103565b60405161007891906105a1565b60405180910390f35b61009b600480360381019061009691906105e8565b61014e565b6040516100ab949392919061066b565b60405180910390f35b6100ce60048036038101906100c991906105e8565b6102ef565b6040516100de949392919061066b565b60405180910390f35b61010160048036038101906100fc91906106dc565b610369565b005b60008060008373ffffffffffffffffffffffffffffffffffffffff1673ffffffffffffffffffffffffffffffffffffffff168152602001908152602001600020805490509050919050565b6000806000806000808773ffffffffffffffffffffffffffffffffffffffff1673ffffffffffffffffffffffffffffffffffffffff1681526020019081526020016000208054905085106101d7576040517f08c379a00000000000000000000000000000000000000000000000000000000081526004016101ce90610779565b60405180910390fd5b60008060008873ffffffffffffffffffffffffffffffffffffffff1673ffffffffffffffffffffffffffffffffffffffff168152602001908152602001600020868154811061022957610228610799565b5b9060005260206000209060040201604051806080016040529081600082015481526020016001820160009054906101000a900473ffffffffffffffffffffffffffffffffffffffff1673ffffffffffffffffffffffffffffffffffffffff1673ffffffffffffffffffffffffffffffffffffffff168152602001600282015481526020016003820160009054906101000a900460ff1615151515815250509050806000015181602001518260400151836060015194509450945094505092959194509250565b6000602052816000526040600020818154811061030b57600080fd5b9060005260206000209060040201600091509150508060000154908060010160009054906101000a900473ffffffffffffffffffffffffffffffffffffffff16908060020154908060030160009054906101000a900460ff16905084565b600060405180608001604052808381526020013373ffffffffffffffffffffffffffffffffffffffff1681526020014281526020016001151581525090506000808473ffffffffffffffffffffffffffffffffffffffff1673ffffffffffffffffffffffffffffffffffffffff1681526020019081526020016000208190806001815401808255809150506001900390600052602060002090600402016000909190919091506000820151816000015560208201518160010160006101000a81548173ffffffffffffffffffffffffffffffffffffffff021916908373ffffffffffffffffffffffffffffffffffffffff1602179055506040820151816002015560608201518160030160006101000a81548160ff02191690831515021790555050503373ffffffffffffffffffffffffffffffffffffffff168373ffffffffffffffffffffffffffffffffffffffff167fa2f95770c1c3bc89c15b7ec9d96232a305e23fd5331a25189a13416f78cb14cc84426040516104eb9291906107c8565b60405180910390a3505050565b600080fd5b600073ffffffffffffffffffffffffffffffffffffffff82169050919050565b6000610528826104fd565b9050919050565b6105388161051d565b811461054357600080fd5b50565b6000813590506105558161052f565b92915050565b600060208284031215610571576105706104f8565b5b600061057f84828501610546565b91505092915050565b6000819050919050565b61059b81610588565b82525050565b60006020820190506105b66000830184610592565b92915050565b6105c581610588565b81146105d057600080fd5b50565b6000813590506105e2816105bc565b92915050565b600080604083850312156105ff576105fe6104f8565b5b600061060d85828601610546565b925050602061061e858286016105d3565b9150509250929050565b6000819050919050565b61063b81610628565b82525050565b61064a8161051d565b82525050565b60008115159050919050565b61066581610650565b82525050565b60006080820190506106806000830187610632565b61068d6020830186610641565b61069a6040830185610592565b6106a7606083018461065c565b95945050505050565b6106b981610628565b81146106c457600080fd5b50565b6000813590506106d6816106b0565b92915050565b600080604083850312156106f3576106f26104f8565b5b600061070185828601610546565b9250506020610712858286016106c7565b9150509250929050565b600082825260208201905092915050565b7f496e76616c696420696e64657800000000000000000000000000000000000000600082015250565b6000610763600d8361071c565b915061076e8261072d565b602082019050919050565b6000602082019050818103600083015261079281610756565b9050919050565b7f4e487b7100000000000000000000000000000000000000000000000000000000600052603260045260246000fd5b60006040820190506107dd6000830185610632565b6107ea6020830184610592565b939250505056fea26469706673582212205eaa1ef9ad9606153c756a28cf540e576fbe952b25811a6256fd579767c15f5164736f6c634300081c0033",
  "linkReferences": {},
  "deployedLinkReferences": {}
}